:020000040800F2
:10000000E0050020A9010008572200089717000802
:1000100055220008730900086D2600080000000042
:100020000000000000000000000000007B2200082B
:100030007509000800000000792200087D220008F0
:10004000C3010008C3010008C3010008C301000880
:10005000C3010008C3010008C3010008C301000870
:10006000C3010008C3010008C3010008C301000860
:10007000C3010008C3010008C3010008C301000850
:10008000C3010008C3010008C3010008000000000C
:10009000000000000000000000000000C301000894
:1000A000C3010008C3010008C3010008C301000820
:1000B000C3010008C3010008C3010008C301000810
:1000C000C3010008C3010008C3010008C301000800
:1000D000C3010008C3010008C301000800000000BC
:1000E000C3010008C3010008C301000800000000AC
:1000F000000000000000000000000000C301000834
:1001000000000000C3010008C3010008C30100088B
:1001100000000000000000000000000000000000DF
:10012000C3010008C3010008C3010008C30100089F
:10013000C3010008000000000000000000000000F3
:10014000000000000000000000000000C3010008E3
:10015000C3010008C3010008C3010008C30100086F
:10016000C3010008C30100080000000000000000F7
:10017000000000000000000000000000000000007F
:1001800000000000C30100080000000000000000A3
:10019000C3010008DFF80CD000F088FB00480047DE
:1001A000B93D0008E00500200648804706480047A2
:1001B000FEE7FEE7FEE7FEE7FEE7FEE7FEE7FEE717
:1001C000FEE7FEE709230008950100082DE9F05F2E
:1001D0000546002092469B468846064681464024B6
:1001E0001BE0284641464746224600F051FA534656
:1001F0005A46C01A914110D311461846224600F0C3
:1002000038FA2D1A67EB01084F46224601200021DB
:1002100000F02FFA17EB00094E41201EA4F1010453
:10022000DFDC484631462A464346BDE8F09F2DE9CB
:10023000F0410024061B254671F1000605DA012471
:100240000027D0EB070067EB0101161E73F10006D3
:1002500005DA0027D2EB0702012567EB0303FFF75E
:10026000B5FF86460E4617469C46AC4204D0002594
:10027000D0EB050E65EB010624B10020D2EB0007A0
:1002800060EB030C704631463A466346BDE8F081A8
:1002900040EA01039B0703D009E008C9121F08C008
:1002A000042AFAD203E011F8013B00F8013B521E88
:1002B000F9D27047D2B201E000F8012B491EFBD2FF
:1002C00070470022F6E710B513460A460446194661
:1002D000FFF7F0FF204610BD2DE9FE4F804681EA72
:1002E0000300C00F0C46009021F0004123F00045B0
:1002F000B8EB0200A94105D24046214690461C4673
:100300000B46024623F00040104347D0270DC7F3A9
:100310000A00C3F30A510290401A019040286BDA98
:10032000C3F3130040F4801B0098924620B10023D1
:10033000D2EB030A63EB0B0B01985946C0F1400264
:10034000504600F096F906460D4650465946019A29
:1003500000F0AEF910EB08006141002487EA115269
:1003600084EAE7731A4340D0009A62B3019A012AE3
:100370004FEA075215DC001B61EB02014FF000420F
:1003800002EA0752CDE90042001C41F580113246D5
:100390002B4600F0E5F903B0BDE8F08F404621465A
:1003A000F9E7001B61EB0201001C41F58013001806
:1003B0005B412018A2F5001747EB030140EAD57016
:1003C000B6196D4111E06D084FEA360645EAC07571
:1003D0004FEA0752001B61EB0201001C41F580113E
:1003E00049084FEA30000019514132462B4603B00C
:1003F000BDE8F04F00F0A5B90098012240000023AD
:10040000D0EB020263EBE073009821464FEAE07400
:10041000B8EB000061EB0401E9E783F000435BE720
:1004200081F0004158E72DE9FE4F81EA030404F012
:10043000004421F0004100944FF0000B23F00043F2
:1004400050EA01045ED052EA03045BD0C3F30A54BD
:10045000C1F30A552C44A4F2F3340194A0FB0254D6
:10046000C1F3130141F48011C3F3130343F4801368
:1004700001FB024400FB034E840A970A44EA8154BC
:1004800047EA8357A4FB076802958D0A05FB078599
:100490004FEA932C04FB0C542705029D4FEA0658A3
:1004A00047EA1637B5EB08056EEB070C870E920E80
:1004B00047EA811742EA8312A7FB0201B6EB0B0160
:1004C00064EB00042B0D43EA0C335E1844EB1C5024
:1004D000DA465146E7FB0201C5F313044FEA0B333A
:1004E00043EA14534FEA0432019C43EA0603A4F1A1
:1004F0000C040294009CCDE900B400F031F903B083
:10050000BDE8F08F00200146F9E72DE9F04D81EAC2
:10051000030404F0004B21F0004514464FF0000A9C
:1005200023F0004150EA050220D054EA01021DD018
:10053000C5F30A570246C5F31303C1F31300C1F311
:100540000A5640F4801543F48013A7EB0608101BED
:10055000D64608F2FD3873EB050002D308F1010816
:1005600001E092185B41B8F1000F03DA0020014668
:10057000BDE8F08D00204FF48011064684460EE061
:10058000171B73EB050705D3121B63EB050306432B
:100590004CEA010C49084FEA300092185B4150EADE
:1005A0000107EDD152EA030012D082EA040083EA87
:1005B0000501084305D0101BAB4106D201220023E0
:1005C00006E000224FF0004302E06FF001025310FA
:1005D0001AEB06004CEB085110EB0A0041EB0B0143
:1005E000BDE8F04D00F0ADB800F0004230F0004042
:1005F0000AD0C10D01F56071C0F3160042EA015145
:10060000C20840071143704700200146704701F0BF
:10061000004330B421F0004150EA010206D00A0D37
:10062000A2F56072C1F31301002A02DC30BC002085
:100630007047440F44EAC104C100E01830BC00EB2D
:10064000C25000F047B830B50B46014600202022CA
:10065000012409E021FA02F59D4205D303FA02F5CF
:10066000491B04FA02F52844151EA2F10102F1DC2F
:1006700030BD202A04DB203A00FA02F10020704746
:100680009140C2F1200320FA03F3194390407047D0
:10069000202A04DB203A21FA02F00021704721FAD7
:1006A00002F3D040C2F1200291400843194670473E
:1006B000202A06DBCB17203A41FA02F043EAE07326
:1006C00006E041FA02F3D040C2F120029140084313
:1006D000194670470029A8BF7047401C490008BF51
:1006E00020F00100704710B4B0FA80FC00FA0CF062
:1006F00050EA010404BF10BC704749B1CCF120049A
:1007000021FA04F411FA0CF118BF01212143084326
:10071000A3EB0C01CB1D4FEA00614FEA102042BF52
:10072000002010BC704700EBC35010440029A4BF48
:1007300010BC7047401C490008BF20F0010010BCED
:10074000704710B5141E73F1000408DA401C41F123
:10075000000192185B411A4301D120F0010010BD45
:100760002DE9F04D92469B4611B1B1FA81F202E0BB
:10077000B0FA80F220329046FFF77BFF04460F4626
:1007800040EA0A0041EA0B0153465A46084313D097
:10079000114653EA010019D0C8F140025046FFF754
:1007A00077FF05460E46504659464246FFF761FF21
:1007B000084305D0012004E020463946BDE8F08D0D
:1007C0000020054346EAE0762C4337430A98630548
:1007D000E40AA0EB08000022FD0A44EA47540A306C
:1007E00002D500200146E9E7010510196941DDE95C
:1007F000084500196941BDE8F04DA2E770B521F048
:10080000004303430CD0C1F30A550024D5EB040583
:1008100064EB0403D617AD1AB34102DB0020014696
:1008200070BD201841EB025170BD0EB5C10F80EABA
:10083000E0700844CA07002140F233438DE80E00FF
:100840000A460B46FFF78CFF03B000BDC1F30A5206
:10085000C1F3130140F2FF3341F480119A4202DAEE
:1008600000200146704740F233439A42A2F23342DD
:1008700002DC5242FFF70CBFFFF7FBBE30B5041E8F
:1008800071F1000404DB4FF00044404264EB0101CD
:10089000141E73F1000405DB1C464FF00043524266
:1008A00063EB0403994208BF904230BD064C074DEC
:1008B00006E0E06840F0010394E807009847103430
:1008C000AC42F6D3FFF76AFCC43F0008E43F0008DF
:1008D0002DE9F04D00231A461B1A8A4103DB002044
:1008E0000146BDE8F08DC1F30A52C1F3130141F492
:1008F00080154FF0000BD10702D100186D41521E38
:100900000027044640F2FF11384601EB620A3E46DA
:100910008046024600204FF48011FFF7B9FEC2194D
:100920007141BB1846EB0100B4EB030C75EB000CF6
:1009300004D3E41A65EB000517460E46241908F1A6
:1009400001006D4180463428E3DDF91946EB0600CD
:10095000091BA84103D24FF0FF32134601E00022E9
:1009600013461BEB070046EB0A51BDE8F04DFFF7BD
:10097000E8BEFEE77047000070B5044600F0D8F806
:100980000546601C02D004480078044400F0D0F80A
:10099000401BA042FAD370BD040000202DE9F84F9F
:1009A000DFF860B100224FF001084FF0030A4FF06A
:1009B0000F090BF1040E00BF0B6808FA02F4234084
:1009C000A3426ED14D68022D01D0122D0ED1D50853
:1009D00000EB850CDCF820505607F70E09FA07F6F5
:1009E000B5430E69BE402E43CCF820600668550022
:1009F0000F790AFA05FC07F0030726EA0C06AF4058
:100A0000374307604E68012E05D0022E03D0112E09
:100A100001D0122E0ED18668CF6826EA0C06AF40B0
:100A2000374387604668A6430C79C4F300149440AA
:100A300034434460C6688C6826EA0C06AC403443F4
:100A4000C4604C68E40056D52F4C256845F48045B9
:100A50002560246822F0030504F4804400942B4CA4
:100A60002E19D6F8084895072F0F09FA07F5AC4359
:100A7000274DA84201D1002515E0264DA84201D1FD
:100A8000012510E0244DA84201D102250BE0234DA1
:100A9000A84201D1032506E0214DA84202D1042538
:100AA00001E028E00725BD402543C6F80858DBF8DB
:100AB00000405D464E689C43F60300D51C432C6005
:100AC000DEF8004075464E689C43B60300D51C43D3
:100AD0002C600C4D08352C684E689C43F60200D5FE
:100AE0001C432C60074D0C352C684E689C43B602A5
:100AF00000D51C432C60521C102AFFF45DAFBDE8EA
:100B0000F88F0000003C01404438024000300140B2
:100B1000000002400004024000080240000C0240B5
:100B2000001002400AB1816170470904FBE7000030
:100B300001488068704700000400002070B5040080
:100B400004D094F83D00002510B106E0012070BDEE
:100B500084F83C50204600F005FA242084F83D003B
:100B60002068016821F00101016000F05FFB33495A
:100B70002268B0FBF1F15160314A6368934206D9B3
:100B80004FF4967359434FF47A73B1FBF3F1236832
:100B9000491C1962616891420BD84900B0FBF1F21F
:100BA000C2F30B02042A01D2042019E0B0FBF1F0D9
:100BB00016E0A3689BB301EBC10202EB0112B0FB8C
:100BC000F2F242F48042120530D04BB301EBC10285
:100BD00002EB0111B0FBF1F040F4804040F4004022
:100BE0002168C861D4E90701084321680860D4E995
:100BF0000310084321688860D4E90501084321688F
:100C0000C8602068016841F001010160256420206E
:100C100084F83D00256384F83E50002070BD00E05C
:100C200006E001EB4102B0FBF2F2CCE70120D7E78E
:100C300001EB4101B0FBF1F0D0E7000040420F00B2
:100C4000A08601002DE9F84F1F4690468A460446CB
:100C5000DDF82890FFF76CFF054694F83D0020284A
:100C60006FD1192301226E492046009500F089FEBC
:100C70000028F5D194F83C00012862D0012084F8C6
:100C80003C0020680168C90703D1016841F00101F7
:100C900001602068016821F400610160222084F86D
:100CA0003D00102084F83E0000262664C4F824800D
:100CB00067855C48E062608D20852B464A46514638
:100CC000204600F07DFD28B1206C84F83C600428AB
:100CD00041D04DE0208D544F68B1012814D0022836
:100CE0002068016816D041F4806101602068416984
:100CF0008069009085E02068416981690091016800
:100D000041F4007101607CE02068016821F4806199
:100D10000160F0E721F4806101602068016841F41E
:100D20000061E2E7032849D801280BD0022817D038
:100D30004B46002239462046009500F022FEB8B905
:100D40002AE06AE02A464946204600F08FFE28B194
:100D5000206C20280CD00120BDE8F88F206845E0E9
:100D60004B46002239462046009500F00AFE08B1A5
:100D70000320F1E72068016841F4007101602068F8
:100D80000169606A421C62620170208D401E2085EC
:100D9000608D401E6085E1E72068016821F4806174
:100DA000016020680169606A421C62620170208DE6
:100DB000401E2085608D401E6085D1E72A46494649
:100DC000204600F053FE0028C2D120680269606A04
:100DD000411C61620270208D401E2085608D401E86
:100DE000608520684169C94349070AD40169606A7E
:100DF000421C62620170208D401E2085608D401E65
:100E00006085208D00288DD1202084F83D0084F855
:100E10003E6084F83C6000209EE702209CE70000D2
:100E2000020010000000FFFF040001002DE9F84F50
:100E30001F4690468A460446DDF82890FFF778FE64
:100E4000064694F83D0020287ED11923012243490B
:100E50002046009600F095FD00287DD194F83C00D6
:100E6000012879D0012084F83C0020680168C90776
:100E700003D1016841F0010101602068016821F49B
:100E800000610160212084F83D00102084F83E00BC
:100E900000252564C4F8248067853148E062608DB0
:100EA000208533464A465146204600F0F9FC28B1D9
:100EB000206C84F83C5004284CD00DE02068416937
:100EC0008069009030E032464946204600F0FFFD40
:100ED00028B1206C042838D00320BDE8F88F606A60
:100EE000411C6162216800780861608D401E608548
:100EF000208D401E80B2208521684A69D243520766
:100F00000BD450B1606A421C626200780861608D47
:100F1000401E6085208D401E208532464946204671
:100F200000F008FD0028D4D1208D0028CBD154F842
:100F30003D0B016841F400710160202004F81E0996
:100F4000E57765770020C8E706E02068016841F48E
:100F5000007101600120C0E70220BEE7020010001E
:100F60000000FFFFF0B587B0044614216846FFF784
:100F7000A8F918492068884229D11748016841F02A
:100F8000020101600068122400F0020005904FF495
:100F90008060012503268DE8710004200F4F049026
:100FA00069463846FFF7FAFC08208DE871000920F1
:100FB000049069463846FFF7F1FC07481030016895
:100FC00041F480010160006800F48000059007B0E2
:100FD000F0BD0000005800403038024000040240DC
:100FE0000248816802781144816070470400002043
:100FF0000B4810B5016841F400710160016841F4CB
:1010000080610160016841F480710160032000F09B
:1010100063F8002000F006F800F024F8002010BD6E
:10102000003C024070B50D4D04464FF47A712878AB
:10103000B1FBF0F00A490968B1FBF0F000F0D4FA16
:1010400048B9102C07D200222146501E00F024F887
:1010500000206C6070BD012070BD00000400002005
:10106000100000200B4882B0016841F4804101600B
:10107000006800F4804000900648001F016841F0BD
:1010800080510160006800F080500090072002B09D
:1010900000F022B844380240F0B40E4B1B680C46F6
:1010A000C3F30223C3F10705042D00D90425191D3C
:1010B000072901D2002300E0DB1E012606FA05F114
:1010C000491E214099409E40761E16403143F0BC97
:1010D00001F0C2B80CED00E0064900F00702086814
:1010E0004FF6FF03184040EA0220034A104308600D
:1010F000704700000CED00E00000FA052DE9F04714
:101100000E46050065D0DFF81481D8F80000F7B26C
:1011100000F00F00B04207D288F80070D8F8000045
:1011200000F00F00B04254D128683D4C810712D521
:10113000400703D5206840F4E0502060287800077D
:1011400003D5206840F4604020602068A96820F042
:10115000F000084320602878C0072DD03049686827
:101160000839012812D0022813D0032811D00968A9
:10117000890700292DDA216821F00301014321604C
:10118000FFF7D6FC814641F2883A0EE009688903F0
:10119000EFE709688901ECE7FFF7CAFCA0EB09015A
:1011A000514502D90320BDE8F0872068696800F046
:1011B0000C00B0EB810FEFD1D8F80010404601F0E1
:1011C0000F01B14207D90770006800F00F00B0426C
:1011D00001D00120E7E72878400705D52068E968B5
:1011E00020F4E050084320602878000706D52068E6
:1011F000296920F4604040EAC100206000F036F820
:101200002168084AC1F30311515CC84006490860CF
:101210000020FFF707FF0020C5E70000003C024068
:1012200008380240CA3E0008100000200448054962
:1012300000680968044AC1F38221515CC8407047C4
:101240001000002008380240DA3E00080448054932
:1012500000680968044AC1F34231515CC8407047D4
:101260001000002008380240DA3E0008154810B58A
:10127000006810F00C02144813D04110042A0FD05B
:10128000082A0ED10F4C241F2268236802F03F0267
:101290005B0207D52068C0F38810A0FB010106E0BF
:1012A000084610BD2168C1F38811A1FB000100238D
:1012B000FEF78CFF2168C1F30141491C4900B0FBD6
:1012C000F1F010BD083802400024F4002DE9F84F79
:1012D000050076D02878DFF8F8B2BE4CC00749D0B8
:1012E000DBF800105846C1F38101012908D00068DD
:1012F000C0F3810002280AD1201D0068400206D5F3
:101300002068800336D568680028E2D032E068683B
:10131000B0F5803F10D0B0F5A02F206810D020F499
:1013200080302060206820F4802020606868A0B1B0
:10133000FFF7FEFB06460CE0206840F48030F4E73F
:1013400040F480202060F7E7FFF7F2FB801B642861
:1013500073D820688003F7D50CE0FFF7E9FB064659
:1013600005E000BFFFF7E4FB801B6428F0D820688D
:101370008003F7D42878DFF8608280074FF00009F7
:101380003ED5DBF80010584611F00C0F09D000686C
:10139000C0F3810002280BD18D48001F0068400275
:1013A00006D42068800715D5E868012809D111E026
:1013B000E868B8B10120C8F80000FFF7B9FB06469D
:1013C00005E002E1FFF7B4FB801B0228C0D82068CB
:1013D0008007F7D52068296920F0F80040EAC100AD
:1013E00020600DE0C8F80090FFF7A2FB064604E07D
:1013F000FFF79EFB801B02281FD820688007F7D4C8
:101400002878000722D5724E744869696C3671B12C
:1014100001210160FFF78CFB074604E0FFF788FB22
:10142000C01B022809D830688007F7D50EE0C0F845
:101430000090FFF77DFB074605E083E0FFF778FBB0
:10144000C01B02287ED830688007F7D42878400770
:1014500068D5DFF87CA100270AF1380ADAF8000025
:10146000C0000BD4DAF8001041F08051CAF8001027
:10147000DAF80000012700F080500090584E3068E4
:10148000C00510D4306840F480703060FFF750FB26
:10149000009005E0FFF74CFB0099401A022851D854
:1014A0003068C005F6D54A4EA868683601280FD0C6
:1014B0000528306810D020F001003060306820F03E
:1014C00004003060A868B8B1FFF732FB00900FE06D
:1014D000306840F00100F4E740F004003060F7E7C6
:1014E000FFF726FB0099411A41F28830814264D807
:1014F00030688007F4D50EE0FFF71AFB009007E094
:10150000FFF716FB0099411A41F28830814254D806
:1015100030688007F4D42FB1DAF8001021F0805140
:10152000CAF80010A869C0B3DBF80010C1F381014C
:1015300002294AD00228484607D0C8F86000FFF7C1
:10154000F7FA00E039E005463AE04746C8F860009F
:10155000FFF7EEFA064604E0FFF7EAFA801B0228DE
:101560002BD820688001F7D4D5E907010843A96A80
:101570001C4A490802EB01416A6A41EA82110843A8
:1015800095F82C1040EA01611148001F016001200C
:101590003866FFF7CDFA054605E014E0FFF7C8FA14
:1015A000401B022809D820688001F7D50BE000BF56
:1015B000FFF7BEFA401B022802D90320BDE8F88FCE
:1015C00020688001F4D40020F8E70120F6E700004D
:1015D000083802400038024000004742800E47426F
:1015E000007000400000FFFF10B5401EB0F1807F8A
:1015F00001D3012010BD4FF0E02460610F2160177E
:1016000000F02AFE0020A06107202061002010BD0C
:1016100070B5040004D094F83900002510B106E03C
:10162000012070BD84F83850204600F023F82420B3
:1016300084F839002068C16821F40051C160204657
:1016400000F08CFE2068016921F49041016120685E
:10165000416921F02A0141612068C16841F40051CB
:10166000C160E563202084F8390084F83A00002046
:1016700070BD000010B586B0044614216846FEF720
:1016800020FE13492068884220D11248016841F4A5
:1016900000310160006800F4003005900D481038FA
:1016A000016841F0010101600068694600F0010035
:1016B00005900C2000900220019001200290032050
:1016C0000390072004900448FFF768F906B010BDA6
:1016D0000044004040380240000002402DE9F84339
:1016E000044690F839001F4616460D46202850D172
:1016F000A5B19EB194F8380001284AD0012084F8A1
:1017000038004FF00008C4F83C80212084F83900EC
:10171000FFF70EFAA6848146E68426E00120BDE8A4
:10172000F883E08C401EE084A0684B46B0F5805FF3
:101730004FF000024FF080012046009703D000F0E8
:1017400063FFE8B90DE000F05FFFC8B928882168A1
:10175000C0F308004860206908B16D1C05E0AD1CAD
:1017600003E0216815F8010B4860E08C0028D8D10F
:101770004B46002240212046009700F045FF08B16B
:101780000320CCE7202084F8390084F8388000203A
:10179000C5E70220C3E7FEE701684A69D243520564
:1017A0000CD46FF480624A6104210164002140F886
:1017B000301F2022427301730120704700207047C0
:1017C0002DE9F84F0446C06A1E4692460D46216830
:1017D0000A6842F480620A60042807D0012805D014
:1017E00010F5803F02D0206B112804D120680168D9
:1017F00041F4807101604FF00118534600224146C8
:101800002046009600F0BDF8B8BB206908F1010938
:10181000B0F5804F12D00620216800EAD51747F0B6
:10182000F00008613346524608F10701204600F0F7
:10183000D9F838B1206C04282FD01EE0E8B240F06F
:1018400001001FE02168E8B208613346524649466C
:10185000204600F0C7F80028ECD120684169816972
:101860000091016841F480710160534600224146B5
:101870002046009600F085F810B10320BDE8F88FEF
:1018800047F0F10021680861334652464946204638
:1018900000F0A8F80028CDD1F0E70120EEE7000025
:1018A000F8B50446C06A1E460D461746042807D000
:1018B000012805D010F5803F02D0206B122804D1FA
:1018C0002068016841F480710160134600224FF0E6
:1018D00001112046009600F054F8A0B92069B0F537
:1018E000804F12D00620216800EAD51040F0F000A9
:1018F000086133463A460E49204600F073F838B185
:10190000206C042811D00320F8BD05F0FE0000E093
:10191000E8B221680861064933463A46891F2046E5
:1019200000F060F80028EBD1F8BD0120F8BD000000
:101930000800010070B516460D4604461AE0204620
:10194000FFF72AFF08B1012070BD681C12D025B135
:10195000FFF7EEF8801BA8420CD954F8400F40F076
:10196000200044F8100900202060202161732073BA
:10197000032070BD20684069C0434007DFD40020C9
:1019800070BD2DE9F0471E4690460D460446C1F352
:101990000747DDF8209012E0701C10D02EB1FFF741
:1019A000C7F8A0EB0900B04209D9002044F8300F75
:1019B00020216173A07320730320BDE8F0872068A5
:1019C000012F0AD0806925EA00000004000C06D02F
:1019D00000214145E0D00020EFE74069F3E7012115
:1019E000F7E700002DE9F0479A4691460D46044678
:1019F00000264FF02008C1F307472AE0206840691D
:101A0000C043400512D42068016841F400710160B0
:101A100021686FF48060486104202064266384F8A4
:101A20003D8084F83C600120BDE8F087B9F1FF3FBC
:101A30000FD0B9F1000F05D0FFF77AF8A0EB0A013B
:101A4000494506D944F8306F84F80D802673032089
:101A5000EAE72068012F07D0D0F8180025EA000037
:101A60000004000CE0D0C9E74069F7E72DE9F04138
:101A7000002590460E460446202721E04069C043D9
:101A8000C0060CD421686FF01000486125642563FE
:101A900084F83D7084F83C500120BDE8F0812EB1FF
:101AA000FFF746F8A0EB0800B04209D954F8400F00
:101AB00040F0200044F80409677025700320ECE72B
:101AC00020684169C9434906D8D40020E5E770B5CC
:101AD00016460D4604461AE02046FFF75DFE08B1A3
:101AE000012070BD681C12D025B1FFF721F8801BC2
:101AF000A8420CD954F8400F40F0200044F81009D7
:101B000000202060202161732073032070BD2068B5
:101B10004069C0430006DFD4002070BD10B5B7EEA9
:101B2000000A00F0FFFA10EE100AFEF75DFD9FEDCF
:101B3000121B53EC112BFEF7E8FC41EC100B9FED50
:101B4000101B00F0C1FD9FED101B51EC100B53EC6E
:101B5000112BFEF765FC9FED0E1B53EC112BFEF7CE
:101B600062FC9FED0D1B53EC112BFEF75CFCFEF7A6
:101B70004EFD00EE100A10BD0000000000AA8F40CC
:101B80003CDD79E2395BC83F000000000000F03F17
:101B90009A999999B3BE0141FD87F4DBD781D33F70
:101BA0002DE9F04F05468DB0698B406A2B7A49428A
:101BB000079300EB0126688B696A404201EB002025
:101BC000EA8A4FF00009A2FB00B8C11709FB0084A4
:101BD00002FB014E0C912A8BCC46A2FB00480CFB69
:101BE000008002FB01000090286A0990A88A0590F5
:101BF000B5F812804F46CA46012B584671467ED032
:101C00004FF480720023FEF712FB4FEAC8328218AD
:101C100041EB5848069220464FF080024FF00003F7
:101C20000099FEF704FB059B00241A0C1B04C31843
:101C300041EB020B0893099B069AA3FB020C04FBE1
:101C400002C203FB08214FF400122346FEF7EFFA0D
:101C5000089B4FF40052C01A61EB0B010023FEF702
:101C6000E6FAE862AB8B0021A3FB060401FB064108
:101C70000C9A03FB02114FF400020023FEF7D7FA7F
:101C80004FF4FA614418AC620798012866D08C4280
:101C90007EDA86FB06120326A1FB060702FB06720C
:101CA000002301FB03211A460223FEF7C0FA8246F5
:101CB000A4F5FA60404300EB400101EBD1714F10F5
:101CC00000EB8000C11700EB51704FEAE00964207F
:101CD00094FBF0F010F10F0F72DA04F2DC5000FB0D
:101CE00000F1C1EBC1010F44A10040F2DC5201EB55
:101CF000820202FB009000E001E0814660E0802269
:101D00000023FEF794FA4FEA0843C01841EB184845
:101D1000069020464FF040024FF000030099FEF776
:101D200086FA059BDA0B5B04C3180893099B069897
:101D300041EB020BA3FB004C002202FB00C003FBA3
:101D4000080120464FF400120023FEF770FA089BAA
:101D50004FF40042C01A61EB0B017FE78C422FDA8F
:101D600086FB06130B22A1FB020703FB027200266F
:101D700001FB062132460823FEF759FA8246A4F5F4
:101D8000FA604043C0EB4011CA1701EB527100E00A
:101D900007E0CF10C0EB8010C11700EBD1604011FD
:101DA000A9E776437000C11700222023FEF73FFA0F
:101DB0008246A4F5FA604043C11700EB1170071189
:101DC0000898F917C71B069A6BEB0106B2EB0901DD
:101DD000079A68EBE970012AA4EB0A02AA62099A41
:101DE0004FF00003A2FB014C03FB01C102FB0011F9
:101DF0004FF40012204611D0FEF719FAC01B61EB18
:101E000006014FF400520023FEF711FA0A220023C4
:101E1000FEF70DFAE8620DB0BDE8F08FFEF707FAA5
:101E2000C01B61EB06014FF400420023FEF7FFF9EF
:101E30006422ECE72DE9F04F87B0834600F079F992
:101E40009FED200A584600F06DF910EE10AA584692
:101E500000F0C6F910EE108A584600F03BF810EE7C
:101E6000104A5846FFF75AFE10EE100AFEF7BCFB68
:101E700006460F462046FEF7B7FB04460D46404691
:101E8000FEF7B2FB804689465046FEF7ADFB0DF1EA
:101E9000080A41EC100B8AE8F00053EC102B0A49B9
:101EA0000A48CDE9008900F0E3FB82B208484FF40C
:101EB0007A7306490280DBF8040007B0BDE8F04FF2
:101EC000FFF70CBC0000C842783F00081800002053
:101ED0000000002010B504462DED028BC068FEF70F
:101EE00083FB9FED111B53EC112BFEF79CFA41EC89
:101EF000180B9FED0F0A204600F014F910EE100A9F
:101F0000FEF772FB9FED0B1B53EC112BFEF785FACE
:101F100053EC182BFEF7F9FAFEF779FBBDEC028BB8
:101F200000EE100A10BD000005A3923A019D234067
:101F30000000C84274B515FBCBEEB93F00B58DB0BB
:101F40008DF808108DED030ACDE900233022694693
:101F5000FEF79EF90DB000BD2DE9FE4FDFF83C9174
:101F600004464FF0FF374FF01E0A42F210754FF44F
:101F70007A7B00BF8DF804A00095012301AAEC2113
:101F80002068FEF753FF60B145A14B4800F070FB9D
:101F900082B2A9F800205B4647496068FFF79EFBC4
:101FA0006DE00A20FEF7E8FC00264FF0A00800BF15
:101FB00008EB46008DF804000095012301AAEC21EE
:101FC0002068FEF733FF10B101273CA14BE00095DC
:101FD000022302AAED212068FEF734FE10B1022789
:101FE0003EA140E004EB4601BDF80800761C40BA73
:101FF000F6B20882072EDBD3781C02D0002FB9D1AD
:102000003DE0218A00204FEA1138C1F30B01218203
:1020100004F11003E08301464FF440564FF6FF777A
:10202000CA0721F0010202D09A5C504002E09A5A9D
:1020300080EA12205FF008025FEA004C03D586EACE
:10204000400080B201E007EA4000521E12F0FF0299
:10205000F2D1491CC9B21029E2D3C0F30730404580
:102060000DD0032724A1144800F002FB82B2A9F886
:1020700000205B4610496068FFF730FB7AE723A138
:102080000D4800F0F5FA82B2A9F800205B460A4933
:102090006068FFF723FBBDE8FE8F00000000002012
:1020A0004D533538333720524553455420666169C6
:1020B0006C65640A0D000000180000204D5335388F
:1020C000333720693263205452414E534D495420D6
:1020D0006661696C65640A0D000000004D53353877
:1020E00033372069326320524543494556452066BF
:1020F00061696C65640A0D004D53353833372043F0
:102100005243206572726F720A0D00004D533538CC
:10211000333720696E697420535543434553532127
:102120000A0D0000D0ED0B0AF8EEE00A20EE800A5E
:102130007047FEB504464A2042F210758DF804003F
:102140000095012301AAEC212068FEF76FFE88BBF1
:102150001420FEF711FC00268DF804600095012381
:1021600001AAEC212068FEF761FE18BB009503234D
:1021700002AAED212068FEF765FD28BB02A801F048
:102180009CFE20625A208DF804000095012301AACC
:10219000EC212068FEF74AFE60B91420FEF7ECFB44
:1021A0008DF804600095012301AAEC212068FEF758
:1021B0003DFE08B10120FEBD0095032302AAED21DA
:1021C0002068FEF73FFD08B10220FEBD02A801F025
:1021D00074FE60622046FFF7E3FC0020FEBD0000B5
:1021E00090ED0A0A9FED031AF8EEC00A80EE810A0C
:1021F000704700000000C84230B587B0142168461F
:10220000FEF75FF811480024016841F00101016008
:10221000016801F001010591016841F002010160CE
:1022200000680B4D00F00200059022462021284650
:10223000FEF778FC202000900120CDE901046946DA
:1022400028460394FEF7AAFB07B030BD30380240A1
:1022500000000240FEE770470907090E002806DA71
:1022600000F00F0000F1E02080F8141D704700F12D
:10227000E02080F80014704770477047FEF7B0BE4A
:1022800030B593B030216846FEF71BF814210CA836
:10229000FEF717F81A480024016841F080510160E8
:1022A000006800F0805011901648016821F4404108
:1022B00041F4004101600068022500F440401190A3
:1022C000012003901020009506950490CDE9074069
:1022D0004FF4A870099004200A9007200B906846DC
:1022E000FEF7F4FF0F20CDE90C05E802CDE90E4022
:1022F00002210CA81094FEF701FF13B030BD0000BE
:1023000040380240007000401048016841F47001FC
:1023100001600F48016841F0010101600C4A002191
:102320000832116002680B4B1A400260031D0A4A12
:102330001A60026822F48022026005480C300160B5
:1023400002495806803908607047000088ED00E0B7
:1023500000380240FFFFF6FE103000242DE9F04166
:1023600004460068016921F44052E16811430161AB
:102370002168C86849F20C6290432369A268E56944
:102380001A4363692B431A430243CA6021684869B0
:1023900020F44072A06910434861E1696425B1F5F9
:1023A000004F9748974A21684FF032083FD091423A
:1023B00001D081427CD1FEF749FF00EBC00101EB67
:1023C000001061688900B0FBF1F6FEF73FFF00EBFB
:1023D000C00101EB001061688900B0FBF1F0B0FBB7
:1023E000F5F06FF01801484306EB800108EB01108F
:1023F000B0FBF5F000F0F006FEF728FF00EBC0019F
:1024000001EB001061688900B0FBF1F0B0FBF5F062
:1024100006EB0016FEF71AFF00EBC00101EB0010FF
:1024200061688900B0FBF1F7FEF710FFD2E091423E
:1024300001D081423DD1FEF709FF00EBC00101EB65
:10244000001061684900B0FBF1F0B0FBF5F0060147
:10245000FEF7FCFE00EBC00101EB001061684900D3
:10246000B0FBF1F7FEF7F2FE00EBC00101EB00104C
:1024700061684900B0FBF1F0B0FBF5F06FF01801B6
:10248000484307EB800108EBC100B0FBF5F000F01A
:10249000F80006EB4006FEF7D9FE00EBC00101EBA9
:1024A000001061684900B0FBF1F7FEF7CFFE3CE099
:1024B00055E0FEF7BBFE00EBC00101EB00106168C8
:1024C0004900B0FBF1F0B0FBF5F00601FEF7AEFEFF
:1024D00000EBC00101EB001061684900B0FBF1F7AF
:1024E000FEF7A4FE00EBC00101EB0010616849009B
:1024F000B0FBF1F0B0FBF5F06FF01801484307EBCB
:10250000800108EBC100B0FBF5F000F0F80006EB2D
:102510004006FEF78BFE00EBC00101EB0010616886
:102520004900B0FBF1F7FEF781FE00EBC00101EBC3
:10253000001061684900B0FBF1F0B0FBF5F06FF0FE
:102540001801484307EB800108EBC100B0FBF5F030
:1025500000F00700216830448860BDE8F081FEF794
:1025600065FE00EBC00101EB001061688900B0FB63
:10257000F1F6FEF75BFE00EBC00101EB00106168B5
:102580008900B0FBF1F0B0FBF5F06FF018014843A3
:1025900006EB800108EB0110B0FBF5F000F0F0064F
:1025A000FEF744FE00EBC00101EB001061688900FA
:1025B000B0FBF1F0B0FBF5F006EB0016FEF736FECF
:1025C00000EBC00101EB001061688900B0FBF1F77E
:1025D000FEF72CFE00EBC00101EB001061688900E2
:1025E000B0FBF1F0B0FBF5F06FF01801484307EBDA
:1025F000800108EB0110B0FBF5F000F00F00A9E737
:1026000000140140001001402DE9F04198461746A2
:102610000E460446069D1DE0681C1BD02DB1FEF73A
:1026200087FAA0EB0800A84214D92068C16821F4F9
:10263000D071C1602068416921F001014161202011
:1026400084F8390084F83A00002084F83800032028
:10265000BDE8F0812068006836EA000004D0002060
:10266000B842D9D00020F3E70120F9E7FEE70000E7
:102670000FB4084B10B504A902AA039800F0F4FFA8
:10268000044602A9002001F086FB204610BC5DF83C
:1026900014FB0000973D000803B401984100009826
:1026A00050EAC12018BF04204A0D18BF40F00100B5
:1026B00040F2FF72B2EB515F08BF40F00200012808
:1026C00008BF052002B070472DE9F04D2DED040B39
:1026D0002DED0E8B96B0DDE92550279CDDF890A0FE
:1026E00025F0004624F00048BAF1000F14BF012184
:1026F000002101EB4502FC4953184A1093422AD3AA
:10270000002814BF0123002303EB44030B44F749C3
:102710008B4220D358EA00019FEDF59B76D0DFF87D
:10272000D8B35D4503D1BAF1000F05D188E0BAF105
:10273000000F08BF002100D0012101EB450111F578
:10274000001F08D8002814BF0121002101EB44011B
:1027500011F5001F0BD99DED261B9DED240B16B026
:10276000BDEC0E8B04B0BDE8F04D00F069BE002753
:10277000002DBCBFE149884521DAE1498845A8BF61
:1027800002271CDAC3451ADCDE4901EB2851142963
:1027900008DDC1F1340220FA02F101FA02F28242AC
:1027A0000DD108E058B9C1F1140228FA02F101FA7A
:1027B00002F2424503D101F00101C1F1020756EADC
:1027C0000A0124D1002C22DA002D18BF022F01D0DB
:1027D000012F0AD0022000F07FFE16B0BDEC0E8B58
:1027E00004B0BDE8F04D00F013BE022000F074FE0E
:1027F00000F00EFE51EC100B81F0004141EC100B8B
:1028000016B0BDEC0E8B04B0BDE8F08D18E09FED66
:10281000BEAB9FEDBF8B002871D1B848804522D157
:1028200005F1804010F5801008BFBAF1000F07D005
:10283000B3450ADC002CA8BF9DED260BE0DA0DE0C5
:10284000B0EE490AF0EE690ADAE7002C06DA9DEDEF
:10285000260B51EC100B81F000416FE0AE4878443C
:1028600090ED000BCCE7D8454DD1002C48DA2EB1C5
:1028700086423AD1BAF1000F42D126E0BAF1000FF8
:1028800013D0022000F028FE00F0F6FD8DED020BC3
:102890009DED240B8DED000B10EE900A039961F372
:1028A0001E0003909DED020BAAE78DED02AB9DED9E
:1028B000240B1AEE901A10EE900A8DED000B61F3C6
:1028C0001E0003909DED020B9AE78DED028B9DEDAE
:1028D000240B18EE901A10EE900A8DED000B61F3A8
:1028E0001E0003909DED020B8AE709DA9DED240B93
:1028F00051EC190B53EC102BFDF707FE1EE020E006
:102900009DED240B7CE786421BDAB4F1804F0DD09D
:10291000A4F10050B0F1FF5013D1002D11DB9DED5B
:10292000240B51EC100B01F091FA07E09DED240B04
:1029300053EC102B51EC100B00F0C2BC41EC100B0F
:102940005EE79DED240B51EC100B01F029FABAF172
:10295000000FCDE90E0142D19FED710B46B3A6F1F8
:10296000E040B0F17F600CD05E4538D1002D00DA38
:10297000A7B3022F0CBF01204FF0FF30FDF755FF2A
:10298000DCE7002D01DD002C0DDA002D01DD002C2F
:102990001FDB002D16DA002C14DB012F08BF9FED82
:1029A000620B3FF42DAFB0EE4A0AF0EE6A0A27E759
:1029B000022F18BF002D0CD0012F0AD1002DFFF6D9
:1029C0001FAF06E0002DB8BF002C08DA012F3FF43E
:1029D00017AFB0EE480AF0EE680A11E71BE00120DD
:1029E00000EBE57050EA070115D0791EB0EE498A78
:1029F000F0EE698A084308BF9FED4D8B4E480025D5
:102A0000804570DD4D494E48884514DDB0420DDBF0
:102A1000002C19DB2FE0012000F05EFD16B0BDECAC
:102A20000E8B04B0BDE8F04D00F016BDB34502DCDE
:102A3000002C09DC1FE0864202DA002C1BDA03E0DE
:102A40005E452BDD002C16DD022000F045FD00F078
:102A500013FD8DED020B53EC1A2B51EC180BFDF707
:102A6000E2FCCDE900010399019861F31E00039097
:102A70009DED020BC4E6022000F02EFD00F00CFDDF
:102A800010EE901A18EE900A8DED020B8DED008B72
:102A900061F31E0003909DED020BB1E69DED0E0B60
:102AA00053EC192B51EC100BFDF7B7FC9FED260BE7
:102AB000CDE9080153EC102B9DED080B51EC100BE8
:102AC000FDF7B1FC9FED221B53EC112BFDF7A8FC89
:102AD0009DED081B53EC112BFDF7A5FC9FED1E1B74
:102AE00053EC112B3CE08CE0FFFF1F00FFFF0F00B9
:102AF000000000000000F03F0000F03F0000F07F09
:102B00000000404301FCFFFF000000000000F07FD8
:102B100000000000000000000E1700000000000090
:102B20000000000000000080000000000000F0FF36
:102B3000000000000000F0BF0000E0410000F04392
:102B4000FFFFEF3F00000000000000000000D03F4A
:102B5000555555555555D53F000000000000E03F44
:102B6000FDF75EFC9DED080B41EC1A0B53EC102BAE
:102B700051EC100BFDF757FC53EC1A2BFDF753FCEF
:102B800041EC1A0B9FEDFE0B53EC102B9DED080B47
:102B900051EC100BFDF747FC41EC1B0B9FEDFA0BC2
:102BA00051EC1A0B53EC102BFDF73DFC41EC1A0BCA
:102BB0009FEDF70B53EC102B9DED080B51EC100B18
:102BC000FDF731FC53EC1A2BFDF727FC41EC1A0BF7
:102BD00051EC1B0B53EC1A2BFDF77EFB0690CDE955
:102BE00006519DED060B53EC1B2B51EC100BFDF722
:102BF00014FC53EC1A2BFDF713FC41EC100B00F006
:102C0000A1B90020B6F5801F0EDA9FEDE30B53EC5F
:102C1000102B9DED0E0B51EC100BFDF704FCCDE9D4
:102C20000E016FF034000E4600EB2650A0F2FF3785
:102C3000C6F31300DA4940F07F6646F040568842FA
:102C4000D8BF002408DDD7498142C8BF012403DC76
:102C50000024A6F580167F1CD348784400EBC400FE
:102C60000F9690ED00CB9DED0E0B53EC1C2B51EC11
:102C7000100BFDF7D2FB9DED0E0B41EC1B0B53EC43
:102C80001C2B51EC100BFDF727FB41EC100B51EC0A
:102C9000190B53EC102BFDF738FC41EC1D0B51ECDC
:102CA0001B0B53EC1D2BFDF7BEFB41EC1A0BBF4871
:102CB0008DED10AB7844109590ED000B4FF0005067
:102CC00040EA660000EB84408DED080B00F5002023
:102CD00009909DED080B53EC1C2B51EC100BFDF7EC
:102CE0009CFB9DED0E1B53EC112BFDF799FB41EC6A
:102CF000100B53EC102B9DED100B51EC100BFDF74E
:102D000092FB9DED080B41EC1C0B53EC102B9DED41
:102D1000100B51EC100BFDF786FB53EC1B2BFDF752
:102D20007FFB53EC1C2BFDF778FB53EC1D2BFDF7C1
:102D30007AFB41EC1C0B53EC1A2B51EC1A0BFDF7F0
:102D400072FB41EC1B0B9A480621B0EE4B0AF0EEE9
:102D50006B0A784400F0E0FAB0EE401AF0EE601A28
:102D6000B0EE41DAF0EE61DA53EC1B2B51EC1B0BA9
:102D7000FDF759FB53EC1D2BFDF755FB9DED100B9B
:102D800041EC1B0B53EC1A2B51EC100BFDF7A4FA82
:102D900053EC1C2BFDF747FB53EC1B2BFDF79CFA68
:102DA0009DED100B41EC1B0B53EC102B51EC100B59
:102DB000FDF739FB41EC1D0B9FED7FEB53EC1E2B18
:102DC000FDF78AFA53EC1B2BFDF786FA0890CDE944
:102DD00008519DED080B53EC1E2B51EC100BFDF729
:102DE0001CFB53EC1D2BFDF718FB53EC1B2BFDF7C5
:102DF00017FB9DED080B41EC1D0B53EC102B9DEDCB
:102E0000100B51EC100BFDF70EFB41EC1B0B53ECC0
:102E10001A2B51EC1D0BFDF706FB9DED080B41EC49
:102E20001A0B53EC102B51EC1C0BFDF7FCFA53EC76
:102E30001A2BFDF751FA41EC1A0B51EC1B0B53EC1A
:102E40001A2BFDF749FA0C90CDE90C519DED0C0BB6
:102E500053EC1B2B51EC100BFDF7DFFA53EC1A2B44
:102E6000FDF7DEFA41EC1B0B9FED550B53EC102BDD
:102E70009DED0C0B51EC100BFDF7D5FA41EC1A0B44
:102E80009FED510B51EC1B0B53EC102BFDF7CBFAC4
:102E900041EC1B0B9FED4E0B53EC102B9DED0C0BDF
:102EA00051EC100BFDF7BFFA53EC1B2BFDF714FA96
:102EB00041EC100B4848784400EBC40090ED001B37
:102EC00051EC100B53EC112BFDF706FA41EC1B0BE8
:102ED0003846FDF7AAFCCDE9080153EC1B2B51EC59
:102EE0001A0BFDF7F9F941EC100B3C48784400EB64
:102EF000C40090ED00CB51EC100B53EC1C2BFDF7F4
:102F0000EBF99DED081B53EC112BFDF7E5F906904D
:102F1000CDE906519DED080B53EC102B9DED060BF2
:102F200051EC100BFDF779FA53EC1C2BFDF775FAF9
:102F300053EC1A2BFDF771FA53EC1B2BFDF770FACB
:102F400041EC100B9DED261B53EC102B8DED001B5F
:102F500000959DED260B51EC100BFDF764FA9DEDED
:102F6000000B41EC1A0B53EC102B9DED260B51EC92
:102F7000100BFDF752FA9DED061B53EC112B2FE0C1
:102F8000000000604715F73FFE822B654715F73FAD
:102F900044DF5DF80BAE543E0000000000004043EB
:102FA0008E9803007AB60B008A120000B812000057
:102FB000C2110000000000000000000000000840F6
:102FC000000000E009C7EE3FFD033ADC09C7EE3F11
:102FD000F5015B14E02F3EBE4E100000081000000B
:102FE000FDF721FA53EC1A2BFDF776F99DED060B50
:102FF00041EC1A0B53EC102B9DED000B51EC100B18
:10300000FDF711FACDE90C019DED0C0B51EC1A0BFB
:1030100053EC102BFDF760F9CDE902010C46AA49EB
:103020008C422FDB611A084318D19DED0C0B53EC39
:10303000102B9DED020B51EC100BFDF7EEF941EC5E
:103040001B0B9FEDA30B51EC1A0B53EC102BFDF750
:1030500043F953EC1B2BFDF711FC2DD2022000F09D
:103060003BFA00F009FA10EE901A18EE900A8DED76
:10307000020B8DED008B61F31E0003909DED020BA2
:10308000FFF7BEBB944A24F00041914214D3934908
:10309000214408437FF4EFAC9DED0C0B53EC102B57
:1030A0009DED020B51EC100BFDF7B7F953EC1A2B09
:1030B000FDF7E4FB7FF6DFAC24F000408849894A45
:1030C000002601EB205182422BDA481C4FF480117C
:1030D00021FA00F02044844AC0F30A517A44A1F254
:1030E000FF3192ED000B814A8DED080BCA4020EABA
:1030F0000202C0F3130040F48010C1F1140120FA61
:1031000001F60992002CB8BF76429DED080B53ECF6
:10311000102B9DED0C0B51EC100BFDF77EF9CDE95A
:103120000C019DED0C0B51EC1A0B53EC102BFDF721
:10313000D3F89FED6F0B0890CDE9085153EC102B9D
:103140009DED080B51EC100BFDF76DF941EC1B0BDD
:103150009FED690B53EC102B9DED080B51EC100B00
:10316000FDF761F99DED0C0B41EC1C0B53EC102BA2
:103170009DED080B51EC100BFDF74FF953EC1A2B9A
:10318000FDF74EF99FED5E1B53EC112BFDF74BF94C
:1031900053EC1C2BFDF7A0F841EC1A0B51EC1B0B68
:1031A00053EC1A2BFDF798F8CDE902019DED020BC7
:1031B00053EC1B2B51EC100BFDF72FF953EC1A2B92
:1031C000FDF72EF99DED020B41EC1A0B53EC102B81
:1031D00051EC100BFDF727F9CDE908014A489DEDA8
:1031E000080B0521784400F097F89DED081B51EC81
:1031F000100B53EC112BFDF716F99DED021B53EC50
:10320000112BFDF70DF9CDE906019DED020B53ECF5
:103210001A2B51EC100BFDF706F953EC1A2BFDF7A6
:103220005BF89FED3B0B41EC1A0B53EC102B9DED23
:10323000060B51EC100BFDF7F0F89DED060B41EC81
:103240001B0B53EC102B9DED020B51EC100BFDF7FB
:10325000EAF853EC1B2BFDF758F953EC1A2BFDF74A
:10326000DCF89DED021B53EC112BFDF7D6F853EC67
:10327000192BFDF7D5F8CDE9020101EB0650011538
:103280000029C8BF039015DC9DED020B324651ECBE
:10329000100BFDF7B3FAFFF7FFF9042808BF00F0A1
:1032A000FBF832469DED020B51EC100BFDF7A6FA30
:1032B000CDE902019DED020B51EC180B53EC102BE4
:1032C000FDF7B1F8FFF73ABB0000904000000000A6
:1032D000FE822B654715973C00CC904000346F3F31
:1032E00001FCFFFF0000E03F900E0000FFFF0F0019
:1032F00000000000432EE63F396CA80C615C20BE44
:10330000EF39FAFE422EE63F600D0000000000009B
:10331000000000000000004070B504462DED028B57
:103320004D1E00EBC500B0EE408AF0EE608A90EDD5
:10333000000B35F0060017D053EC182B51EC100B96
:10334000FDF771F841EC100B6D1E04EBC50090ED1C
:10335000001B51EC100B53EC112BFCF7BDFF41ECA3
:10336000100B35F00600E7D1022D36D0042D1CD00D
:10337000062D1CBFBDEC028B70BD53EC182B51EC1D
:10338000100BFDF750F894ED0A1B53EC112BFCF7D2
:10339000A3FF53EC182BFDF746F894ED081B53ECF4
:1033A000112BFCF799FF41EC100B53EC182B51EC4F
:1033B000100BFDF738F894ED061B53EC112BFCF7BE
:1033C0008BFF53EC182BFDF72EF894ED040B53EC08
:1033D000102BFCF781FF41EC100B53EC182B51EC38
:1033E000100BFDF720F894ED021B53EC112BFCF7AA
:1033F00073FF53EC182BFDF716F894ED001B53ECFC
:10340000112BFCF769FFBDEC028B41EC100B70BD7A
:103410009FED070B10B553EC102B9FED070B51ECF4
:10342000100BFDF772F841EC100B10BD000000000E
:103430000000000000000000000000000000F03F5D
:1034400010B553EC112B51EC100BFCF745FF41EC80
:10345000100B10BD000000009FED050B10B553ECE4
:10346000102B51EC100BFDF750F841EC100B10BD78
:1034700000000000000000009FED050B10B553ECAC
:10348000102B51EC100BFCF7CEFF41EC100B10BDD4
:1034900000000000000000709FED050B10B553EC1C
:1034A000102B51EC100BFCF7BEFF41EC100B10BDC4
:1034B000000000000000001002E008C8121F08C150
:1034C000002AFAD170477047002001E001C1121FA5
:1034D000002AFBD1704700000149086070470000D6
:1034E000140000202DE9FF5F82B00021DDE90430E7
:1034F000020DDDF840B0034318D044F61050A2F29C
:10350000FF3242431514119801281FD0A5EB0B0080
:10351000401C5FEA000A4FF000064E4FDFF838917A
:10352000B046504615D5CAF1000413E011980124A5
:103530004AA3012801D16FEA0B010298119AC0E950
:103540000031C0E9024206B0BDE8F09FCBF10000B7
:10355000DFE704460021404A491842EB0450CDE918
:10356000001012E0E00707D032463B46404649468D
:10357000FCF759FF8046894632463B4610461946BD
:10358000FCF751FF06460F466410002CEAD1DDE936
:103590000401DDE90023BAF1000F06DAFCF743FF6E
:1035A00042464B46FCF73FFF05E0FCF7AEFF4246C4
:1035B0004B46FCF7AAFF04460E460022284BFDF7B7
:1035C0005DF903D84FF0FF30014607E00022254B9C
:1035D00020463146FCF780FEFDF738F9102409E05B
:1035E000002C0ADB0A220023FCF7F0FD039B30329B
:1035F0001A55641E50EA0102F2D1641C039AC4F108
:1036000011031444119A012A03D0012208430DD159
:103610000AE0084304D000204FF0110B119072E72C
:10362000A3EB0B056D1E0DE05B4504DD4FF00002C2
:1036300005F1010504E003DA4FF00002A5F10105F0
:10364000002AECD002981199C0E90231C0E9004586
:1036500079E70000000014400000F03F3000000057
:103660000000F0430000E03F2DE9FF4F95B09B467E
:103670008946064600250FE2252877D100242746F3
:10368000F84A0121059400E0044316F8013F203B6D
:1036900001FA03F01042F7D130782A2811D06FF0E8
:1036A0002F033078A0F13002092A16D8059A44F089
:1036B000020402EB820203EB42021044761C0590E6
:1036C000EFE759F8042B0592002A03DA504244F43C
:1036D0000054059044F00204761C30782E2816D150
:1036E00016F8010F44F004042A280DD06FF02F02C1
:1036F0003078A0F13003092B09D807EB870302EBE0
:103700004303C718761CF3E759F8047B761C30781E
:103710006C280FD006DC4C2817D068280DD06A28FA
:1037200014D104E0742810D07A280FD10DE044F4AD
:1037300000140AE044F4801401E044F44014727868
:10374000824202D104F58014761C761C30786628FB
:103750000BD013DC582877D009DC002875D0452819
:10376000F6D04628F4D047281AD19DE118E0632806
:1037700035D0642879D0652812D195E1702873D0AE
:1037800008DC6728F1D069286FD06E280DD06F282B
:1037900006D1B5E073282CD0752875D0782874D060
:1037A0005A46179990476D1C75E1C4F302500228E0
:1037B00009D003280DD0D9F8001004280DD00D60D1
:1037C00009F1040967E1D9F80010EA17C1E90052CC
:1037D000F6E7D9F800100D80F2E70D70F0E719F860
:1037E000041B8DF8001000208DF80100EA4601202E
:1037F00003E059F804AB4FF0FF3061074FF00001D0
:1038000002D40DE008F101018846B9420FDA804583
:10381000F8DB1AF808100029F4D108E008F10101DA
:1038200088468142FADB1AF808100029F6D105987B
:103830005B46A0EB080721463846179A00F094FA39
:10384000284400EB080507E04DE029E10DE01AF8F7
:10385000010B5A4617999047B8F10108F7D25B4619
:1038600021463846179A13E142E00A220092C4F337
:1038700002524FF0000A022A08D059F804CB032A5A
:103880004FEAEC710AD00DE029E02AE009F10701C6
:1038900021F00702F2E802C1914609E00FFA8CFC20
:1038A0004FEAEC71042A03D14FFA8CFC4FEAEC7119
:1038B000002907DA0A460021DCF1000C61EB020165
:1038C0002D2202E0220504D52B228DF804200122AE
:1038D00003E0E20701D02022F7E7904659E00A21F1
:1038E00002E010220DE010214FF0000A00910BE0E1
:1038F00010224FF0000A44F004040827009203E06D
:1039000008224FF0000A0092C4F30252022A05D0A6
:1039100059F804CB0021032A08D009E009F1070176
:1039200021F00702F2E802C1914605E01FFA8CFC83
:10393000042A01D10CF0FF0C4FF00008220728D513
:10394000702806D0009B83F0100353EA0A0305D0C9
:103950000EE040228DF80420012208E05CEA01021A
:1039600006D030228DF804208DF805000222904602
:10397000009B83F0080353EA0A030AD15CEA0102C0
:1039800001D1620705D530228DF804204FF00108DF
:103990007F1E582804D034A003900EA802900DE09A
:1039A00036A0F9E753466046009AFCF70FFC8446C0
:1039B0000398825C0298401E029002705CEA01004B
:1039C000F0D1029806A9081A00F1200A600702D572
:1039D00024F4803400E00127574502DDA7EB0A00FC
:1039E00000E0002000EB0A01009005984144401AD5
:1039F0000590E00306D45B462146179A059800F02F
:103A0000B3F90544002706E001A85A46C05D17999E
:103A100090476D1C7F1C4745F6DBE0030CD55B46E9
:103A20002146179A059800F09FF9054404E03020DC
:103A30005A46179990476D1C0099481E009000291E
:103A4000F5DC08E0029802995A460078491C029178
:103A5000179990476D1CBAF10001AAF1010AF1DC37
:103A600065E1000009280100303132333435363742
:103A700038396162636465660000000030313233BA
:103A8000343536373839414243444546000000005A
:103A900000F058F90544761C307800287FF4ECAD2E
:103AA00019B02846BDE8F08F620700D4062709F157
:103AB000070222F0070CFCE80223E14603F000486D
:103AC0005FEA080C02D00FF2702C0DE05FEA045C94
:103AD00002D50FF2682C07E05FEAC47C02D00FF237
:103AE000602C01E0AFF2700C4FF0FF3823F0004380
:103AF000CDF850C065280CD006DC452809D04628F2
:103B00001DD047283DD13DE0662818D067287ED1DA
:103B100038E00021112F01DB112000E0781CCDE9F5
:103B2000000106A90EA8FFF7DDFCDDE90F010E9AE2
:103B300003910021009207F1010A04914DE04FF03A
:103B400000400097CDE9011006A90EA8FFF7CAFCB6
:103B5000DDE90F0203920E9B11990022DDF80CA003
:103B60000093049211B9791C00EB010AB7EB0A002B
:103B700004D4C0F1FF3007F1010A0490AAEB07005A
:103B8000019044E0012F00DA01270021112F01DD0F
:103B9000112000E03846CDE9000106A90EA8FFF784
:103BA000A1FCDDE90F010E9A03910021049100921E
:103BB000BA4621070CD40399514500DA8A46BAF176
:103BC000010F05DD009AAAF10101515C302908D0EE
:103BD000B84202DA10F1040F06DA0121CDE9011032
:103BE00015E0AAF10101E9E7002805DC0499014488
:103BF0000491AAEB000102E0411C514500DD8A4618
:103C00000499401A401C01904FF000400290200798
:103C100004D40198504501DBCDF8048000208DF8D4
:103C20004F0002980DF14F07B0F1004F25D02B2027
:103C30000E9002984FF0020800280CDA40420290E1
:103C40002D200E9007E00A210298FCF7FCFC303191
:103C5000029007F8011DB8F10001A8F10108F2DC9B
:103C600002980028EFD1791E0E980870307800F085
:103C7000200040F0450007F8020D12A8C01B00F11B
:103C800007081498007800B1012000EB0A010198A0
:103C900001EBE07105984144401A401E0590E00395
:103CA00006D45B462146179A059800F05DF8054456
:103CB0001498007818B15A46179990476D1CE00384
:103CC00024D55B462146179A059800F04DF8054427
:103CD0001CE00498002807DBDDE90301884203DDCE
:103CE0000098405C179901E0179930205A46904798
:103CF000049805F10105401C04900198401E0190B4
:103D000004D12E205A46179990476D1CBAF1000134
:103D1000AAF1010ADDDC05E017F8010B5A461799F4
:103D200090476D1CB8F10001A8F10108F4DC5B4676
:103D30002146179A0598ABE62D0000002B000000E5
:103D4000200000002DE9F041044600251E461746DC
:103D5000880404D405E039462020B0476D1C641E59
:103D6000F9D52846BDE8F0812DE9F041044600254B
:103D70001E469046C80301D5302700E0202788045E
:103D800004D505E041463846B0476D1C641EF9D5A0
:103D90002846BDE8F0810A68531C0B60107070471C
:103DA00082B0CDE9000121F0004001909DED000BB3
:103DB00002B051EC100B70478CB0FDF719F9FEF70B
:103DC0005FFAFEF719FA1D481B49002401601C49DF
:103DD000C0E901144FF48041C0E9034144618461AA
:103DE000C4610462FCF7AAFE14481649543001600D
:103DF0004FF4E131C0E901140C21C460C0E9044171
:103E00008461C461FDF704FC0C4B0C4A54339FEDF4
:103E10000E0A00216846FEF791F8084830226946EC
:103E20009430FCF735FA05489430FEF795F80348CE
:103E30009430FDF7FFFFFAE700580040180100201A
:103E4000A08601000044004000A0804400B52DED94
:103E5000048B83B041EC190BFCF73AFD41EC180BD5
:103E600018EE100A18EE901A8DED008B002818BF7E
:103E70000120084320F00040C0F17F6000F1E040E5
:103E8000C00F14D019EE101A19EE900A8DED009B98
:103E9000002918BF0121084320F00040C0F17F60D5
:103EA00000F1E040C00F04BF0120FFF715FB51EC0B
:103EB000180B03B0BDEC048B00BD017842780904F7
:103EC000807841EA022108437047000000000000AA
:103ED00000000102030406070809000000000102B7
:103EE0000304000000000000000000000000F03F9C
:103EF000000000000000F83F00000000000000008B
:103F00000000004003B8E23F000000000000000095
:103F100006D0CF43EBFD4C3E033333333333E33F23
:103F2000FFAB6FDBB66DDB3F4D268F515555D53F4F
:103F300001411DA96074D13F65DBC9934A86CD3F1D
:103F4000EF4E454A287ECA3F3E5555555555C53F0B
:103F500093BDBE166CC166BF2CDE25AF6A56113FFD
:103F6000F16BD2C541BDBBBED0A4BE726937663EFF
:103F70000000000000000000094D53353833373A87
:103F80000970726573737572653A20252E32663B2F
:103F90000974656D70657261747572653A20252EBD
:103FA00032663B0964657074683A20252E32663BA0
:103FB00009616C7469747564653A20252E32663B1C
:103FC0000A0D0000E43F0008000000201800000077
:103FD000B8340008FC3F000818000020C8050000A5
:103FE000C8340008000000000100000010000000BC
:0C3FF000000000000024F40000000000AD
:040000050800019559
:00000001FF
